{
    "contractName": "Test",
    "abi": [
        {
            "constant": true,
            "inputs": [],
            "name": "value",
            "outputs": [
                {
                    "internalType": "string",
                    "name": "",
                    "type": "string"
                }
            ],
            "payable": false,
            "stateMutability": "view",
            "type": "function"
        },
        {
            "constant": false,
            "inputs": [
                {
                    "internalType": "string",
                    "name": "_value",
                    "type": "string"
                }
            ],
            "name": "setValues",
            "outputs": [],
            "payable": false,
            "stateMutability": "nonpayable",
            "type": "function"
        }
    ],
    "bytecode": "608060405234801561001057600080fd5b506102d5806100206000396000f3fe608060405234801561001057600080fd5b50600436106100365760003560e01c80633fa4f2451461003b578063420069b3146100b8575b600080fd5b610043610160565b6040805160208082528351818301528351919283929083019185019080838360005b8381101561007d578181015183820152602001610065565b50505050905090810190601f1680156100aa5780820380516001836020036101000a031916815260200191505b509250505060405180910390f35b61015e600480360360208110156100ce57600080fd5b8101906020810181356401000000008111156100e957600080fd5b8201836020820111156100fb57600080fd5b8035906020019184600183028401116401000000008311171561011d57600080fd5b91908080601f0160208091040260200160405190810160405280939291908181526020018383808284376000920191909152509295506101ee945050505050565b005b6000805460408051602060026001851615610100026000190190941693909304601f810184900484028201840190925281815292918301828280156101e65780601f106101bb576101008083540402835291602001916101e6565b820191906000526020600020905b8154815290600101906020018083116101c957829003601f168201915b505050505081565b8051610201906000906020840190610205565b5050565b828054600181600116156101000203166002900490600052602060002090601f016020900481019282601f1061024657805160ff1916838001178555610273565b82800160010185558215610273579182015b82811115610273578251825591602001919060010190610258565b5061027f929150610283565b5090565b61029d91905b8082111561027f5760008155600101610289565b9056fea265627a7a723158200a80ae69a3dae14a74002934d75a38aa97e526b3dc40636b7e95d4f98b2242ec64736f6c634300050b0032",
    "sourcePath": "/Users/iakimova/Documents/freelance/blockchain/solidity/learn base/BaseTaskOne.sol",
    "compiler": {
        "name": "solc",
        "version": "0.5.11+commit.c082d0b4"
    },
    "functionHashes": {
        "setValues(string)": "420069b3",
        "value()": "3fa4f245"
    },
    "gasEstimates": {
        "creation": {
            "codeDepositCost": "145000",
            "executionCost": "190",
            "totalCost": "145190"
        },
        "external": {
            "setValues(string)": "infinite",
            "value()": "infinite"
        }
    }
}